:02000004080AE8
:1000000000000A08104A0A08000006000600050160
:080010000402DB070000000000
:0400180048430A0847
:1000200009480A4908B5884205D0094A824202D0E7
:10003000121A02F01DFB0748074A0021121A02F0AB
:1000400025FB064808BD00BF00000020E4470A0861
:10005000040200200402002000030020000300200E
:1000600070B500F03BFE0025054E064CA41BA4080D
:10007000A54200D170BD56F8043B98470135F7E71B
:10008000BC470A08DC470A0800F012B908B500F0BE
:1000900027F9BDE8084000F0E3BD00F015BC00F012
:1000A00013BC00F019BC0078B0FA80F0400970472A
:1000B0000123037070470023022200F0D5BB00002B
:1000C00008B500F073FA014B186008BD1C0200204F
:1000D00008B500F06BFA024B1B68C01A08BD00BFE0
:1000E0001C02002010B5064BC4B22146188801F04E
:1000F00004FC044B2146BDE81040188801F0FDBB0C
:1001000020000020000000200020024B1870FFF7A4
:10011000E9BF00BF2802002008B500F047FA034BF2
:100120001B68834294BF0020012008BD20020020EC
:1001300030B504460D4685B0FFF7EEFF1E4B02A812
:100140001B788DF8003021683C232A6800F046FFB8
:100150000020029C00F014FB20B1637813B900F07A
:1001600093FBFAE76378651CBFF35B8FABB900259F
:10017000039C7CB16368013B63605BB923682046E4
:100180009B689847A368013BA3601BB9236820467E
:10019000DB689847284605B030BD002000F0F0FA33
:1001A00020B12B7813B900F06FFBFAE72378012B0D
:1001B000DDD1257BDCE700BF0802002000B589B057
:1001C00068460B4900F036FC0A4904A800F032FCEE
:1001D00004A96846FFF7ACFF04A800F0E1FB6846FD
:1001E00000F0DEFB0122044B1A7009B05DF804FB3D
:1001F0005C430A08AA460A082802002010B588B005
:1002000004460D49684600F015FC0C4904A800F0AE
:1002100011FC04A96846FFF78BFF04A800F0C0FB9F
:10022000684600F0BDFB4FF0FF32054B1C70054BDC
:100230001A6008B010BD00BF62430A08AA460A0847
:10024000180200201C02002070B588B0044600F09F
:10025000ADF90646204600F01AFC0546304602F08D
:1002600059F9294602F0A6F802F0ACF90D4B0E49F7
:100270001860684600F0DEFB0C4904A800F0DAFBC9
:1002800004A96846FFF754FF04A800F089FB6846FC
:1002900000F086FB204600F0FAFB02F093F908B06C
:1002A00070BD00BF200200206C430A08AA460A085D
:1002B00008B5084B0121188801F00EFB064B0121FF
:1002C000188801F009FB054B03211888BDE8084098
:1002D00001F002BB200000200000002028000020C8
:1002E00037B57D4D2C78002C3ED100F0D5FA002892
:1002F0003AD07A49234604220968794800F0B4FAD2
:1003000078497948FFF7D7FE234601227749784894
:1003100000F0AAFA012223467649774800F0A4FAB1
:1003200076497748FFF7C7FE764C77497748FFF75D
:10033000C2FE77497748FFF7BEFE237801A97648C9
:100340000193FFF7B8FE75497548FFF7B4FE2378AF
:1003500001A971480193FFF7AEFE724A72497348D2
:1003600000F049FD01232B70714B188801F0DEFA73
:1003700001280ED1FFF722FF6E4B1B78002B4FD0C8
:10038000604B1B78052B4BD8DFE803F00620384C78
:100390007887FFF7B9FEEFE700F008F95F4C2368B4
:1003A000C01A504B1A684FF47A735343984237D3AC
:1003B00000F0FCF8544B20601B680120002BC2BFEA
:1003C00000225D4B1A70FFF719FF29E0474B1B789D
:1003D00013B34F4B1B68002B0ADBFFF779FE574B1B
:1003E0001B6898421CDB0020FFF77CFE0220EAE736
:1003F000FFF766FE0120FFF775FE11E04F4B1B680B
:10040000002B09DD424B1B68002B07DBFFF760FE6A
:100410004B4B1B68984203DB0320D4E7FFF750FEE9
:1004200003B030BD3A4B1B68002B0ADBFFF750FED0
:10043000444B1B689842F3DB0020FFF753FE042077
:10044000C1E7FFF73DFE3C4B1B78012B0BD0022B85
:100450000ED0002BCED1294B2B4A1B6812689B1A59
:10046000384A1360C6E7254B1A68364B1A60C1E755
:10047000224B254A1B6812681344F1E71D4B1B7879
:100480004BB1234B1B68002BC8DBFFF721FE2D4B24
:100490001B689842C4DB052095E71D4B1B68002BA9
:1004A000BCDBFFF715FE284B1B689842B8DB164BE8
:1004B0001868002887D0204B1878012806D0022819
:1004C00007D00028ACD1012018707CE702221A70F6
:1004D00079E7002077E700BF100200202400002009
:1004E00077430A081800002082430A081000002001
:1004F0008B430A080400002092430A0808000020E9
:100500009D430A08180200200C020020A6430A0896
:100510001C020020AE430A0866430A082402002099
:10052000B9430A08C3430A0849020A08CB0D0A085E
:1005300028000020280200200500002014000020D0
:100540000C000020140200201C0000200021024B9F
:100550000120197000F00CB90802002008B5024B08
:100560001B689B68019308BDB001060808B5024BE3
:100570001B68DB68019308BDB001060808B5024B93
:100580001B681B69019308BDB001060808B5024B42
:100590001B685B69019308BDB001060808B5024BF2
:1005A0001B685B68019308BD9C01060808B5024BF7
:1005B0001B685B69019308BD9C01060808B5024BE6
:1005C0001B685B6C019308BDD001060808B5024B9F
:1005D0001B689B6C019308BDD001060808B5024B4F
:1005E0001B689B69019308BDC401060808B5024B4E
:1005F0001B685B6A019308BDC401060808B5024B7D
:100600001B689B6A019308BDC401060808B5024B2C
:100610001B68DB6A019308BDC401060808B5024BDC
:100620001B681B6B019308BDC401060808B5024B8B
:100630001B685B6B019308BDC401060808B5024B3B
:100640001B689B6B019308BDC401060808B5024BEB
:100650001B681B6C019308BDC401060808B5024B5A
:100660001B681B6E019308BDAC01060808B5024B60
:100670001B685B6E019308BDAC01060808B5024B10
:100680001B689B6E019308BDAC01060808B5024BC0
:100690001B68DB6E019308BDAC01060808B5024B70
:1006A0001B681B6F019308BDAC01060808B5024B1F
:1006B0001B685B6F019308BDAC01060808B5034BCE
:1006C0001B68D3F88030019308BD0000AC01060818
:1006D00008B5024B1B68DB69019308BDB40106082D
:1006E00008B5024B1B681B6A019308BDB4010608DC
:1006F00008B5024B1B681B68019308BDD8010608AA
:1007000008B5024B1B681B69019308BDD801060898
:1007100008B5024B1B685B69019308BDD801060848
:1007200008B5024B1B689B69019308BDD8010608F8
:1007300008B5024B1B68DB69019308BDD8010608A8
:1007400008B5024B1B681B6A019308BDD801060857
:1007500008B5024B1B689B6C019308BDC0010608DD
:1007600008B5024B1B685B68019308BDA40106082D
:1007700008B5024B1B68DB6A019308BDA40106089B
:1007800008B5024B1B68DB6C019308BDA401060889
:1007900008B5024B1B685B6D019308BDA4010608F8
:1007A00008B5034B1B68D3F89030019308BD0000D7
:1007B000A401060808B5034B1B68D3F89C300193CD
:1007C00008BD0000A401060808B5024B1B685B6861
:1007D000019308BDC801060808B5024B1B689B6859
:1007E000019308BDC801060808B5024B1B68DB6809
:1007F000019308BDC801060808B5024B1B681B69B8
:10080000019308BDC801060808B5024B1B685B6967
:10081000019308BDC801060808B5024B1B689B6917
:10082000019308BDC801060808B5024B1B68DB69C7
:10083000019308BDC801060808B5024B1B681B6A76
:10084000019308BDC801060808B5024B1B681B6B65
:10085000019308BDC801060808B5024B1B685B6B15
:10086000019308BDC801060808B5024B1B681B6848
:10087000019308BDCC01060808B5024B1B685B68F4
:10088000019308BDCC01060808B5024B1B689B68A4
:10089000019308BDCC01060808B5024B1B685B69D3
:1008A000019308BDCC01060808B5024B1B681B6A02
:1008B000019308BDCC01060808B5024B1B68DB6B31
:1008C000019308BDCC01060808B5024B1B681B68E4
:1008D000019308BDA001060808B5024B1B685B68C0
:1008E000019308BDA001060808B5024B1B689B6870
:1008F000019308BDA001060808B5024B1B68DB6A1E
:10090000019308BDA001060808B5024B1B681B6BCC
:10091000019308BDA001060808B5024B1B685B6C7B
:10092000019308BDA001060870B5002604460D46D7
:1009300040F8086FFFF742FE28462570FFF7C8FE13
:100940002046666070BD10B50446006818B1FFF718
:10095000C3FF0023236010BD10B50446FFF7F3FF6B
:10096000204610BD0222002010B5084B084C1A602A
:10097000084B2060A080A071A360FFF7F1FE204625
:10098000BDE81040044A054901F03CB83802002097
:100990002C0200200000FFFF0402002059090A0871
:1009A00010B504460068FFF797FF204610BD10B54C
:1009B0000446006808B1FFF78FFF0023C4E9013344
:1009C000236010BD38B504460D4600680131FFF7BD
:1009D0008BFF10B1C4E90005012038BD10B50368D4
:1009E000044623B143688B4201D3012010BD204649
:1009F000FFF7E8FF0028F9D0A368002BF5D12268A3
:100A00001370F2E770B50E46114604461546FFF71F
:100A1000E5FF20B92046FFF7CAFF204670BD2A46F1
:100A200031462068A56001F023FE00212268A368FA
:100A3000D154F2E738B5002304460D46C0E900332F
:100A40008360037339B1084601F067FE2946024608
:100A50002046FFF7D7FF204638BD884210B50B4629
:100A6000044604D0096821B19A68FFF7CBFF2046FD
:100A700010BDFFF79CFFFAE7002310B50446C0E95C
:100A8000003383600373FFF7E8FF204610BD08B50D
:100A9000006820B101F0DAFD01F036FC08BD00204D
:100AA000FCE7F8B506460D4600248F18BD420CD071
:100AB000336830469B6815F8011B9847031E01DB1D
:100AC0001C44F3E7002C08BF1C462046F8BD70B557
:100AD00005460C46084649B101F01FFE2B68024648
:100AE00021462846BDE87040DB68184770BD0368A2
:100AF0009B6818470023012A98BF0A2230B58BB0A3
:100B00000C468DF8243009A92546B4FBF2F404FB09
:100B10001253DBB2092B94BF30333733DBB2AA4216
:100B200001F8013DF0D9FFF7D2FF0BB030BD002333
:100B300040681A461946FFF767BE38B5046805468F
:100B40007CB16368013B63605BB9236820469B68A6
:100B50009847A368013BA3601BB923682046DB6864
:100B60009847284638BD0B68036013B15A680132B4
:100B70005A607047014B024A1A6070473C020020DD
:100B800002440A08024B1A68024B1A60704700BF01
:100B90002C0000204002002010B58368044613B1E9
:100BA000032201469847204610BD10B50446FFF7C2
:100BB000F3FF204610BD13B56C460B46024603C832
:100BC00084E8030093E8030082E8030094E803004C
:100BD00083E8030002B010BD00230348034A044920
:100BE000836000F00FBF00BF440200200402002019
:100BF000AB0B0A08014B1860704700BF30000020A3
:100C000008B5134B43B100F01BFC03681B69984700
:100C1000002801DDAFF300800E4B43B100F0BAFCB9
:100C200003681B699847002801DDAFF300800A4B79
:100C30000BB1AFF30080094B43B100F031FC036806
:100C40001B699847002801DDAFF3008008BD00BF95
:100C50000000000000000000000000000000000094
:100C600008B5FFF7CDFFFFF7A1FC014B186008BDE9
:100C7000CC0200200248034A0349121A01F0F8BCD2
:100C80000040024004400240E0470A08002307B544
:100C90001A466FF077010093FFF78CFD03B05DF803
:100CA00004FB000007B543880A2B08D0502B0BD15A
:100CB000094B1B684BB103B05DF804EB1847FFF715
:100CC000E5FF03B05DF804FB00231A466FF07701DF
:100CD0000093FFF76FFDF4E75802002038B5124C7F
:100CE00000211248FFF718FE114D2368AB420CBFDC
:100CF000012200220F4B1A7002D0FFF7BBFF2560C4
:100D0000FFF74CFC044601F0C9FC0B4B13B1204625
:100D1000AFF3008000210848FFF7CEFDBDE8384062
:100D200000210648FFF73CBD00400240F50B0A08D1
:100D30001E1C279A5402002000000000A50C0A087F
:100D400070470020704710B50446102100F05FFE88
:100D5000204610BD08B5FFF7F6FF08BD002230B5EC
:100D60004FF69C74026084808D888C800C6885802E
:100D700004600A6030BD10B504460068FFF7ACFDA2
:100D8000204610BD38B5C468F4B12378022B03D1D6
:100D900004F10C00FFF7EFFF656835B12846FFF757
:100DA000FBFE1021284600F032FEA56835B128462A
:100DB000FFF7F2FE1021284600F029FE2046BDE88C
:100DC0003840142100F023BE38BD10B588B0044669
:100DD0006846FFF72FFE694604A8FFF74DFE04A8FA
:100DE000A047044604A8FFF7DBFD6846FFF7D8FDDF
:100DF000204608B010BD1FB500231024CDE9020124
:100E0000019269461A461846ADF80230ADF8004026
:100E1000FFF732FD04B010BD73B50E46044656F818
:100E2000043B0D4601A831460093FFF79CFE009B52
:100E3000019A23600023626001A801930093FFF7E9
:100E40007CFE3046FFF779FE2846082100F0DFFDE2
:100E5000204602B070BD826810B50AB900F0DBFD13
:100E6000C368BDE81040184708B5006800F11001DC
:100E7000FFF7F1FF08BD826810B50AB900F0CBFD9D
:100E8000C368BDE81040184708B5006800F11001BC
:100E9000FFF7F1FF08BD000038B5002304460360EA
:100EA00010200D46FFF7F9F828B10123C0E90133FE
:100EB000024BC56003602060204638BD2C440A0800
:100EC00038B5002383608B6804460D462BB102229F
:100ED0009847EB68E360AB68A360204638BD00002C
:100EE000F0B589B004686846FFF738FF4FF0020399
:100EF000D4E84F2F002A03D1C4E8413F0029F7D19D
:100F000025D104F10C0569462846FFF727FF012388
:100F1000BFF35B8F63700020BFF35B8F04F10803A6
:100F200053E8006F43E80002002AF9D1BFF35B8F5A
:100F30006EB1FFF725FC78B129463046FFF78BFFED
:100F40003046FFF729FE1021304600F060FD68466C
:100F5000FFF711FF09B0F0BD314602A8FFF7B0FF5F
:100F6000E068B4F9105008B101F0BCFB0690102005
:100F7000ADF81C50FFF791F80546E8B100278760EF
:100F80001820FFF78AF8044688B10146876002A856
:100F9000FFF711FE049BA268A360059B0492E26820
:100FA00006A9E36004F110000592FFF7D7FE084B95
:100FB0002C60EB60074BAB6006A8FFF7DCFE02A8D5
:100FC000FFF7EAFD002229460348FFF7E1FBB7E7F8
:100FD000690E0A0801110A0819160A082DE9F047D6
:100FE0008AB005460C46174698469DF84890FFF78C
:100FF00053FC07AE824638BB4FF62E73059005A909
:101000003046ADF81830FFF7A9FE1420FFF745F879
:10101000044648B1022303700123C0E901AA4370CA
:1010200031460C30FFF79AFE2846214640F8044B23
:10103000FFF732FF3046FFF79EFE05A8FFF79BFE45
:1010400028460AB0BDE8F0870C234FF0000A1420B0
:10105000CDE908AA0793FFF720F8014628B1C0E9B7
:1010600001AA80F800A080F801A004A80391FFF76E
:1010700013FF224B08200893FFF70FF8824628B190
:10108000039B04A940F8043BFFF76DFD4246394637
:10109000204600965FFA89F3CDF824A0FFF704FC00
:1010A000B8B9039B5B7803F0FF0293B94FF69C73CA
:1010B00005A903A80592ADF81830FFF711FF05A8A0
:1010C000FFF759FE05A80999FFF7A6FE06A8FFF746
:1010D00034FD039B04A906A80593FFF744FD059B77
:1010E000069A2B6000236A6006A806930593FFF713
:1010F00024FD04A8FFF721FDA2E700BFC5110A08DF
:10110000022AF8B5054607D0032A18D0012A01D1D2
:101110000B6803600020F8BD18200E68FEF7BDFFC5
:10112000044650B13146FFF7CBFE3069B6F9147072
:1011300008B101F0D7FA2061A7822C60EAE70468C1
:10114000002CE7D004F11000FFF715FE2046FFF752
:1011500023FD1821204600F05AFCDBE738B50023B8
:1011600083608B6804460D462BB102229847EB68DA
:10117000E360AB68A360204638BD022A70B5044620
:1011800007D0032A12D0012A01D10B680360002086
:1011900070BD14200E68FEF780FF054620B1314671
:1011A000FFF7DCFF337C2B742560F0E70468002C2C
:1011B000EDD02046FFF7F0FC1421204600F027FC7C
:1011C000E5E70000F0B5044689B00D4601A81146D8
:1011D000FFF722FEA4B124B21DB1284601F082FA25
:1011E000054601A803A90395ADF81040FFF778FE66
:1011F00003A8FFF7C0FD02A8FFF79FFC09B0F0BDF0
:101200000123019DD5E84F2F002A03D1C5E8413FB6
:101210000029F7D1EFD12B73BFF35B8F6B70BFF356
:101220005B8F2B1D53E8006F43E80042002AF9D181
:10123000BFF35B8F002EDED02046FFF7A1FA0746F2
:1012400060B1304605F10C01FFF715FE3046FFF79F
:10125000A3FC1021304600F0DAFBCCE7314603A8AE
:10126000FFF77CFF2B7B10208DF81C30FEF715FF5D
:101270000546D0B187601420FEF70FFF044678B111
:101280000146876003A8FFF796FC059BA268A36050
:10129000069B0592E268E3609DF81C300692237479
:1012A000064B2C60EB60064BAB6003A8FFF774FCA9
:1012B000002229460348FFF76BFAC7E7890E0A08A0
:1012C0007B110A0819160A08704710B50446182140
:1012D00000F09DFB204610BDF8B50E46002400F13D
:1012E0000807051D17F8011D0A223046FFF702FC0A
:1012F000AF42044401D12046F8BD002CF2D02E218B
:101300003046FFF7F4FB0444ECE7000010B5044658
:10131000044B1122002140F8043B01F0B7F92046AC
:1013200010BD00BF48440A080346074A10B543F8F9
:10133000042B01F1100251F8044B914243F8044B85
:10134000F9D10A781A7010BD48440A08024AC0E967
:10135000002104220275704748440A0810B59DF820
:10136000084044EA0324042344EA024444EA0164B2
:101370004460037510BD000037B5044D05609DF84D
:1013800018500095FFF7EAFF03B030BD48440A0843
:1013900041747047704708B50021007CFFF7C0F921
:1013A00040EAE07008BD08B50121007CFFF7B8F9FC
:1013B00040EAE07008BD08B5007CFFF7A9F920EA13
:1013C000E07008BD08B5007CFFF79AF920EAE070EC
:1013D00008BD38B50446007C0D46FFF799F9002892
:1013E00001DC607C28B12946207CFFF7A1F920EAC6
:1013F000E07038BD007CFFF7A3B910B50446142196
:1014000000F005FB204610BD10B54FF47A7304467A
:1014100008460021C4E90113044B20742360012312
:1014200011466374FFF764F9204610BD5C440A0856
:1014300010B504461422002101F028F9204610BD01
:1014400030B50F4D87B001A8FFF7F2FF2978BFF341
:101450005B8F11F0010410D12846FEF724FE60B125
:10146000214601AA0748FFF7CFFF2846FEF720FED6
:10147000054A0649034800F0C5FA024807B030BDE6
:101480005C020020640200200402002095130A0878
:1014900010B504461422002101F0F8F8204610BDD2
:1014A00010B50F4C86B001A8FFF7F2FF2378BFF309
:1014B0005B8FDB0710D42046FEF7F5FD60B10121FC
:1014C00001AA0848FFF7A0FF2046FEF7F1FD064AF3
:1014D0000649044800F096FA024806B010BD00BF65
:1014E00060020020780200200402002095130A0800
:1014F00070474174704708B5007CFFF7A7F820EAF1
:10150000E07008BD08B5007CFFF778F820EAE070CD
:1015100008BD08B5007CFFF781F840EAE07008BD1F
:1015200008B5007CFFF772F840EAE07008BD007C67
:10153000FFF77CB870B5467C04460D462EB12946AF
:10154000207CBDE87040FFF751B8007CFFF77EF8C3
:101550000028F4DC304670BD10B50446142100F0BC
:1015600056FA204610BD00004FF0000C10B504469E
:10157000084611464FF47A72C4E901C2044A207445
:101580002260012262741A46FFF728F8204610BD37
:101590008C440A08F8B51A4C26684EB98420FEF728
:1015A0007CFD054618B18422314601F06FF82560B4
:1015B000144D2F684FB98420FEF76FFD064618B111
:1015C0008422394601F062F82E600F4F3978BFF35C
:1015D0005B8F11F0010611D13846FEF764FD68B14A
:1015E000314622682B680948FFF7BEFF3846FEF7F0
:1015F0005FFD074A0749054800F004FA0348F8BDB3
:1016000090020020940200208C020020980200200A
:1016100004020020F1140A0810B5836804460BB9CF
:1016200000F0F9F9C3689847A3681BB1032221466B
:10163000204698472046BDE81040102100F0E7B949
:101640007047F8B5064615460C468F18BC4206D0C2
:10165000336830469B6814F8011B9847F6E7284624
:10166000F8BD0022007CFEF7F9BF0021007CFEF7E8
:10167000FDBF0021007CFFF701B80021007CFFF7CF
:1016800005B80021007CFFF709B810B50446142105
:1016900000F0BDF9204610BD10B54FF47A73044632
:1016A00008460021C4E90113034B1146236020744E
:1016B000FFF704F8204610BDBC440A080022406829
:1016C0001146FFF799B8F0B5154689B011220E46BC
:1016D0000446002103A800F0D9FF284601F01DF8B8
:1016E000002781B273682846009703AAFFF730F8F5
:1016F00030B139462046FFF729FE204609B0F0BD3B
:10170000204603A9FFF710FEF7E7002240681146C4
:10171000FFF792B8002240681146FFF79DB80022FB
:101720004068FFF791B80022406881F00101FFF79F
:101730007BB8002340681A461946FFF76DB80022AF
:1017400040681146FFF748B8002202214068FFF7C1
:101750004BB8002340681A46FFF736B80422024B04
:101760005A60024A1A607047AC020020E4440A083A
:10177000002340681A46FFF727B80022022140687C
:10178000FFF732B8002240681146FFF725B8002263
:1017900040681146FFF730B8002340681A461946E2
:1017A000FFF732B8002340681A461946FFF734B8ED
:1017B0000022406881F00101FFF736B8002240683E
:1017C000FFF742B8002240681146FFF745B80022F3
:1017D00040681146FFF730B870B515468EB0044624
:1017E00008A8FFF793FD1122002103A800F04EFF87
:1017F0000026284600F091FF0A4B009681B25B68F4
:10180000284603AAFEF7A4FF30B131462046FFF771
:101810009DFD20460EB070BD204603A9FFF784FD54
:10182000F7E700BFAC020020024B034A1A60002217
:101830005A607047B402002018450A0810B50446E3
:10184000806808B1FEF7C2FE204610BD172870B5AB
:10185000044601D9002070BDA0F10D03022B0BD965
:10186000012826D800F0A6F80021007CFEF71EFF14
:1018700080F00100C0B2EEE7134E3178BFF35B8F0A
:1018800011F001050FD13046FEF70DFC58B1294685
:101890000E48FFF749F83046FEF70AFC0C4A0D499E
:1018A0000A4800F0AFF8094B1878FEF719FF002836
:1018B000D0D1123C012C05D8FFF76CFE007CFEF75E
:1018C000BDFED5E70120C6E7BC020020C002002013
:1018D000040200203D180A08172838B504460D46B2
:1018E0000AD8FF2908D0FFF7B1FF28B129462046C2
:1018F000BDE83840FEF732BE38BD38B504460D4667
:10190000FEF734FEFF2810D0062804D84D2323FA12
:1019100000F0C30709D42046FFF798FF28B12946F5
:101920002046BDE83840FEF729BE38BD10B5044654
:10193000FEF71CFE031FDBB2012B08D92046FFF780
:1019400085FF20B12046BDE81040FEF71FBE0020F5
:1019500010BD0000002313B5074C1A461946204657
:101960000093FFF709FD2046044A054902B0BDE88F
:10197000104000F047B800BFD00200200402002051
:10198000C9120A08002370B5202543801423084E8D
:1019900004460380314685600561284600F039F829
:1019A00031466060284600F034F8E060204670BDA3
:1019B00044450A0830B50F4D87B02978BFF35B8FD7
:1019C00011F0010413D12846FEF76DFB78B101A890
:1019D000FFF7D8FF214601AA0748FFF75DFE28461A
:1019E000FEF766FB054A0649034800F00BF802487B
:1019F00007B030BDE8020020EC0200200402002005
:101A000041160A080B460146184600F023BEFEF7B1
:101A100048BBFEF744BB08B5FEF76EFF81F00041FE
:101A200002E000BF83F0004330B54FEA41044FEAC3
:101A3000430594EA050F08BF90EA020F1FBF54EA5E
:101A4000000C55EA020C7FEA645C7FEA655C00F0FA
:101A5000E2804FEA5454D4EB5555B8BF6D420CDDCB
:101A60002C4480EA020281EA030382EA000083EA4E
:101A7000010180EA020281EA0303362D88BF30BDEE
:101A800011F0004F4FEA01314FF4801C4CEA113144
:101A900002D0404261EB410113F0004F4FEA0333A3
:101AA0004CEA133302D0524263EB430394EA050F2E
:101AB00000F0A780A4F10104D5F1200E0DDB02FA9D
:101AC0000EFC22FA05F2801841F1000103FA0EF231
:101AD000801843FA05F359410EE0A5F120050EF1F7
:101AE000200E012A03FA0EFC28BF4CF0020C43FA28
:101AF00005F3C01851EBE37101F0004507D54FF035
:101B0000000EDCF1000C7EEB00006EEB0101B1F584
:101B1000801F1BD3B1F5001F0CD349085FEA3000CA
:101B20004FEA3C0C04F101044FEA445212F5800FD5
:101B300080F09A80BCF1004F08BF5FEA500C50F172
:101B4000000041EB045141EA050130BD5FEA4C0C55
:101B5000404141EB0101013C28BFB1F5801FE9D2B2
:101B600091F0000F04BF01460020B1FA81F308BFD5
:101B70002033A3F10B03B3F120020CDA0C3208DDA1
:101B800002F1140CC2F10C0201FA0CF021FA02F17C
:101B90000CE002F11402D8BFC2F1200C01FA02F1EC
:101BA00020FA0CFCDCBF41EA0C019040E41AA2BF11
:101BB00001EB0451294330BD6FEA04041F3C1CDAD9
:101BC0000C340EDC04F11404C4F1200220FA04F0F9
:101BD00001FA02F340EA030021FA04F345EA0301A3
:101BE00030BDC4F10C04C4F1200220FA02F001FA65
:101BF00004F340EA0300294630BD21FA04F02946E7
:101C000030BD94F0000F83F4801306BF81F480117F
:101C10000134013D4EE77FEA645C18BF7FEA655CF2
:101C200029D094EA050F08BF90EA020F05D054EAC4
:101C3000000C04BF1946104630BD91EA030F1EBFC9
:101C40000021002030BD5FEA545C05D140004941CD
:101C500028BF41F0004130BD14F580043CBF01F5C0
:101C6000801130BD01F0004545F0FE4141F47001A6
:101C70004FF0000030BD7FEA645C1ABF1946104681
:101C80007FEA655C1CBF0B46024650EA013406BF82
:101C900052EA033591EA030F41F4002130BD00BF41
:101CA00090F0000F04BF0021704730B54FF48064FE
:101CB00004F132044FF000054FF0000150E700BF7F
:101CC00090F0000F04BF0021704730B54FF48064DE
:101CD00004F1320410F0004548BF40424FF00001CB
:101CE0003EE700BF42004FEAE2014FEA31014FEA0E
:101CF00002701FBF12F07F4393F07F4F81F060515D
:101D0000704732F07F4208BF704793F07F4F04BFA7
:101D100041F40021704730B54FF4607401F0004584
:101D200021F000411CE700BF50EA010208BF7047E4
:101D300030B54FF000050AE050EA010208BF7047D5
:101D400030B511F0004502D5404261EB41014FF43E
:101D5000806404F132045FEA915C3FF4D8AE4FF046
:101D600003025FEADC0C18BF03325FEADC0C18BF29
:101D7000033202EBDC02C2F1200300FA03FC20FA7A
:101D800002F001FA03FE40EA0E0021FA02F11444C7
:101D9000BDE600BF70B54FF0FF0C4CF4E06C1CEAE0
:101DA00011541DBF1CEA135594EA0C0F95EA0C0F51
:101DB00000F0DEF82C4481EA030621EA4C5123EAC4
:101DC0004C5350EA013518BF52EA033541F48011F3
:101DD00043F4801338D0A0FB02CE4FF00005E1FBA6
:101DE00002E506F00042E0FB03E54FF00006E1FBF0
:101DF00003569CF0000F18BF4EF0010EA4F1FF0433
:101E0000B6F5007F64F5407404D25FEA4E0E6D4172
:101E100046EB060642EAC62141EA55514FEAC52083
:101E200040EA5E504FEACE2EB4F1FD0C88BFBCF5FF
:101E3000E06F1ED8BEF1004F08BF5FEA500E50F1B0
:101E4000000041EB045170BD06F0004646EA010176
:101E500040EA020081EA0301B4EB5C04C2BFD4EBA8
:101E60000C0541EA045170BD41F480114FF0000EA1
:101E7000013C00F3AB8014F1360FDEBF002001F00F
:101E8000004170BDC4F10004203C35DA0C341BDC89
:101E900004F11404C4F1200500FA05F320FA04F05B
:101EA00001FA05F240EA020001F0004221F000418F
:101EB00010EBD37021FA04F642EB06015EEA430E02
:101EC00008BF20EAD37070BDC4F10C04C4F1200532
:101ED00000FA04F320FA05F001FA04F240EA0200E5
:101EE00001F0004110EBD37041F100015EEA430EB6
:101EF00008BF20EAD37070BDC4F1200500FA05F2D6
:101F00004EEA020E20FA04F301FA05F243EA020354
:101F100021FA04F001F0004121FA04F220EA020063
:101F200000EBD3705EEA430E08BF20EAD37070BDA9
:101F300094F0000F0FD101F00046400041EB010189
:101F400011F4801F08BF013CF7D041EA060195F06B
:101F5000000F18BF704703F00046520043EB030325
:101F600013F4801F08BF013DF7D043EA0603704712
:101F700094EA0C0F0CEA135518BF95EA0C0F0CD01D
:101F800050EA410618BF52EA4306D1D181EA030163
:101F900001F000414FF0000070BD50EA410606BF5D
:101FA0001046194652EA430619D094EA0C0F02D1A2
:101FB00050EA013613D195EA0C0F05D152EA0336E7
:101FC0001CBF104619460AD181EA030101F0004105
:101FD00041F0FE4141F470014FF0000070BD41F04E
:101FE000FE4141F4780170BD70B54FF0FF0C4CF428
:101FF000E06C1CEA11541DBF1CEA135594EA0C0F47
:1020000095EA0C0F00F0A7F8A4EB050481EA030E93
:1020100052EA03354FEA013100F088804FEA03337A
:102020004FF0805545EA131343EA12634FEA022248
:1020300045EA111545EA10654FEA00260EF0004109
:102040009D4208BF964244F1FD0404F5407402D25B
:102050005B084FEA3202B61A65EB03055B084FEAEC
:1020600032024FF480104FF4002CB6EB020E75EBE9
:10207000030E22BFB61A754640EA0C005B084FEA11
:102080003202B6EB020E75EB030E22BFB61A75468E
:1020900040EA5C005B084FEA3202B6EB020E75EBD9
:1020A000030E22BFB61A754640EA9C005B084FEA51
:1020B0003202B6EB020E75EB030E22BFB61A75465E
:1020C00040EADC0055EA060E18D04FEA051545EA4D
:1020D00016754FEA06164FEAC30343EA52734FEAF6
:1020E000C2025FEA1C1CC0D111F4801F0BD141EA6F
:1020F00000014FF000004FF0004CB6E711F4801FD4
:1021000004BF01430020B4F1FD0C88BFBCF5E06FB3
:102110003FF6AFAEB5EB030C04BFB6EB020C5FEAC3
:10212000500C50F1000041EB045170BD0EF0004E18
:102130004EEA113114EB5C04C2BFD4EB0C0541EA4A
:10214000045170BD41F480114FF0000E013C90E647
:1021500045EA060E8DE60CEA135594EA0C0F08BF0B
:1021600095EA0C0F3FF43BAF94EA0C0F0AD150EA0A
:1021700001347FF434AF95EA0C0F7FF425AF10469D
:1021800019462CE795EA0C0F06D152EA03353FF4C5
:10219000FDAE1046194622E750EA410618BF52EA42
:1021A00043067FF4C5AE50EA41047FF40DAF52EA16
:1021B00043057FF4EBAE12E74FF0FF3C06E000BFB3
:1021C0004FF0010C02E000BF4FF0010C4DF804CDC0
:1021D0004FEA410C7FEA6C5C4FEA430C18BF7FEA80
:1021E0006C5C1BD001B050EA410C0CBF52EA430CAE
:1021F00091EA030F02BF90EA020F0020704710F12E
:10220000000F91EA030F58BF994208BF90422CBFBC
:10221000D8176FEAE37040F0010070474FEA410CB5
:102220007FEA6C5C02D150EA013C07D14FEA430CD3
:102230007FEA6C5CD6D152EA033CD3D05DF8040B44
:10224000704700BF8446104662468C461946634676
:1022500000E000BF01B5FFF7B7FF002848BF10F14D
:10226000000F01BD4DF808EDFFF7F4FF0CBF012092
:1022700000205DF808FB00BF4DF808EDFFF7EAFF0E
:1022800034BF012000205DF808FB00BF4DF808EDC9
:10229000FFF7E0FF94BF012000205DF808FB00BFBE
:1022A0004DF808EDFFF7CEFF94BF012000205DF848
:1022B00008FB00BF4DF808EDFFF7C4FF34BF012055
:1022C00000205DF808FB00BF4A0011D212F5001291
:1022D00011D20DD56FF47873B3EB62520ED44FEA7E
:1022E000C12343F0004343EA505323FA02F07047FE
:1022F0004FF00000704750EA013002D14FF0FF303C
:1023000070474FF0000070474FEA4102B2F1E043DE
:1023100024BFB3F5001CDCF1FE5C0DD901F0004CCC
:102320004FEAC0024CEA5070B2F1004F40EB83001C
:1023300008BF20F00100704711F0804F21D113F148
:102340003872BCBF01F00040704741F480114FEA81
:102350005252C2F11802C2F1200C10FA0CF320FA0A
:1023600002F018BF40F001004FEAC1234FEAD32327
:1023700003FA0CFC40EA0C0023FA02F34FEA430391
:10238000CCE77FEA625307D150EA01331EBF4FF01A
:10239000FE4040F44000704701F0004040F0FE4035
:1023A00040F40000704700BF80F0004002E000BF32
:1023B00081F0004142001FBF5FEA410392EA030F30
:1023C0007FEA226C7FEA236C6AD04FEA1262D2EB7A
:1023D0001363C1BFD218414048404140B8BF5B427F
:1023E000192B88BF704710F0004F40F4000020F018
:1023F0007F4018BF404211F0004F41F4000121F02E
:102400007F4118BF494292EA030F3FD0A2F1010277
:1024100041FA03FC10EB0C00C3F1200301FA03F1B5
:1024200000F0004302D5494260EB4000B0F5000FD8
:1024300013D3B0F1807F06D340084FEA310102F197
:102440000102FE2A51D2B1F1004F40EBC25008BF49
:1024500020F0010040EA03007047490040EB000013
:10246000013A28BFB0F5000FEDD2B0FA80FCACF114
:10247000080CB2EB0C0200FA0CF0AABF00EBC25041
:1024800052421843BCBFD0401843704792F0000F2F
:1024900081F4000106BF80F400000132013BB5E782
:1024A0004FEA41037FEA226C18BF7FEA236C21D0F8
:1024B00092EA030F04D092F0000F08BF084670475D
:1024C00090EA010F1CBF0020704712F07F4F04D12B
:1024D000400028BF40F00040704712F100723CBF3E
:1024E00000F50000704700F0004343F0FE4040F468
:1024F000000070477FEA226216BF08467FEA236326
:102500000146420206BF5FEA412390EA010F40F410
:10251000800070474FF0000304E000BF10F000435C
:1025200048BF40425FEA000C08BF704743F0964343
:1025300001464FF000001CE050EA010208BF70475E
:102540004FF000030AE000BF50EA010208BF7047E5
:1025500011F0004302D5404261EB41015FEA010CFA
:1025600002BF84460146002043F0B64308BFA3F1F2
:102570008053A3F50003BCFA8CF2083AA3EBC253D4
:1025800010DB01FA02FC634400FA02FCC2F12002F3
:10259000BCF1004F20FA02F243EB020008BF20F02A
:1025A0000100704702F1200201FA02FCC2F1200290
:1025B00050EA4C0021FA02F243EB020008BF20EA85
:1025C000DC7070474FEA4002B2F1FE4F0FD34FF07C
:1025D0009E03B3EB12620DD94FEA002343F0004390
:1025E00010F0004F23FA02F018BF404270474FF03E
:1025F0000000704712F1610F01D1420205D110F0C5
:10260000004008BF6FF0004070474FF00000704777
:10261000D0B500220B4B06460F46FFF7BBFBFFF77A
:1026200053FE0446FFF73CFB0022074BFFF7B2FBCB
:1026300002460B4630463946FFF7F4F9FFF744FEF1
:102640002146D0BD0000F03D0000F041002100F027
:1026500093BE000010B504460448134620B10A4654
:1026600002202146AFF3008010BD00BF0000000033
:102670000A44914200F1FF3300D1704710B511F8C0
:10268000014B914203F8014FF9D110BD03460244BA
:10269000934200D1704703F8011BF9E738B50D4BA1
:1026A00004461D68AB6B7BB91820FEF70DF90A4A8A
:1026B0000A4BA863C0E90023094B012283600B2366
:1026C00083810023C0E904230022AB6B1C615A61A3
:1026D00038BD00BF300000200E33CDAB34126DE6A4
:1026E000ECDE0500024B0146186800F003B800BF9D
:1026F0003000002070B5044608460D4600F00DF885
:10270000461C31462046FEF7FFF8044618B1324613
:102710002946FFF7ADFF204670BD034613F8012B95
:10272000002AFBD1181A0138704710B56AB1013977
:10273000841810F8013B11F8012F934203D1A042F5
:1027400001D0002BF5D1981A10BD1046FCE72DE9F9
:10275000F0410F46904601F07FFC04460D46B8F16B
:10276000000F11D0C7F30A53C3F16B03002B0BDD2D
:1027700000241B0503F17F5505F5401522462B4625
:10278000FFF708FB04460D4620462946BDE8F081C8
:102790002DE9F04F9B460023A1B01C93A14B82462C
:1027A0001F680E4638461792FFF7B7FF4FF0000834
:1027B00004464FF000091B961B9B1A782B2A4CD01D
:1027C0003AD80D2A33D8082A33D8002A3DD000231E
:1027D0000C931B9D2B78302B40F0AF806B7803F06F
:1027E000DF03582B6CD10C9B504601931CAB00931C
:1027F0008D4ACDF808B01DAB1BA900F031FE10F0DA
:102800000706044605D0062E29D1002301351B9565
:102810000C93179B002B40F096850C9BD3B142463E
:1028200009F100431046194621B0BDE8F08F202A77
:10283000CDD101331B93BFE72D2AC8D101220C92C1
:102840005A1C1B925B78002BC3D1179B1B96002B45
:1028500040F0778542464B46E4E70022EFE71C9ABA
:102860003AB135211EA801F0EEFC50461C9901F04A
:1028700029F9013E052E07D8DFE806F00E0B181DDA
:102880000E034FF00009C8462107C2D549F00049A0
:10289000BFE7DDE91E89F7E71D9ADDE91E8302F235
:1028A000334223F4801343EA0259EDE74FF0000866
:1028B000DFF87891E8E76FF000494FF0FF38E3E781
:1028C0001B9B5A1C1B925B78302BF9D0002BA0D09D
:1028D000012307931B9B0A22089300239B46CDE903
:1028E00005331B980578A5F13003D9B2092926D9FB
:1028F00022463946FFF719FF002832D000202B4628
:102900005C4602460490652B01D0452B13D11CB9BF
:10291000079B034399D000241B9E731C1B93737861
:102920002B2B78D02D2B7BD00027A3F13001092948
:1029300040F282801B9600259EE00023C9E7BBF190
:10294000080FD5BF0699059902FB013302FB01333D
:1029500000F10100D4BF069305930BF1010B1B900E
:10296000BFE71B9B1A191B921B5DBBF1000F36D0F2
:102970005C460490A3F13002092A12D90122C2E771
:102980001B9B01305A1C1B925B78302BF8D0A3F1B3
:102990003102082A00F2DC840490002004461B9ACD
:1029A0000892303B00F1010213D00499051911443B
:1029B000049122460A21AA4213D12218082A04F1BE
:1029C000010404441BDC0A22069902FB013306932E
:1029D00000221B9B1046591C1B915B78CAE7584686
:1029E000D3E7082A04DC069F4F4306970132E2E74B
:1029F000571C102FDEBF059F4F430597F6E7102C9D
:102A0000DFBF0A22059902FB01330593E0E70023AB
:102A1000012204937CE70027B31C1B93B37884E75F
:102A20000127F9E7AC460A0854450A080000F07F80
:102A30001B9B591C1B915B78302BF9D0A3F1310102
:102A400008293FF678AF4FF00A0EA3F1300C1B9B1C
:102A500009931B9B591C1B915B78A3F13005092D31
:102A600035D9099D491B082944F61F6502DC6545D7
:102A7000A8BF654607B16D42002C4CD107990143B0
:102A80007FF4C7AE002A7FF4E0AE692B26D023DCAA
:102A9000492B23D04E2B7FF4D8AE9C491BA800F0C5
:102AA0001BFF00283FF4D1AE1B9B1B78282B2CD199
:102AB00097491EAA1BA800F023FF052825D11F9BBC
:102AC000DDF8788043F0FF4949F4E009A1E60EFB08
:102AD0000C3CACF1300CBCE76E2BDCE78D491BA83D
:102AE00000F0FAFE00283FF4B0AE1B9B8A49013B80
:102AF0001BA81B9300F0F0FE10B91B9B01331B9326
:102B00004FF00008DFF8209283E6844801F0EEFBE6
:102B1000804689467DE6049BBBF1000F08BFA346B3
:102B2000EB1A102C069826460793A8BF1026FFF72D
:102B3000B7F8092C8046894613DD794B03EBC603B1
:102B400053E91223FFF726F9804605988946FFF7D7
:102B5000A7F802460B4640464946FEF765FF804609
:102B600089460F2C36DC079B002B3FF452AE22DD4A
:102B7000162B09DC6A4C424604EBC3044B46D4E9ED
:102B80000001FFF707F9C3E7079AC4F12503934251
:102B900020DB634DC4F10F0405EBC4014246D1E9CB
:102BA00000014B46FFF7F6F8079B1C1B05EBC4051D
:102BB000D5E90023E5E7079B16330BDB049B584A56
:102BC0005D1B02EBC5054046D5E900234946FFF7EA
:102BD0000BFA9DE7079BA61B1E44002E71DD16F025
:102BE0000F030AD04E49424601EBC301D1E900016F
:102BF0004B46FFF7CFF88046894636F00F0650D097
:102C0000B6F59A7F27DD4FF0000BCDF810B0CDF868
:102C100020B0CDF818B022234FF00008DFF808915B
:102C2000CAF80030089B002B3FF4F3AD50461C99C6
:102C300000F048FF5046069900F044FF50460499C2
:102C400000F040FF5046089900F03CFF59465046BE
:102C500000F038FFDDE50023404649461F463611A7
:102C6000012E21DC0BB1804689462E4BA9F1547907
:102C700003EBC7074246D7E900014B46FFF78AF846
:102C8000294B0A460B40294980468B42BBD8A1F507
:102C900080118B4286BF4FF0FF38DFF8949002F12D
:102CA0005479002305937EE0F20707D51D4B03EB13
:102CB000C703D3E90023FFF76DF80123013776102E
:102CC000CEE7EED0764216F00F020AD0144B404603
:102CD00003EBC2034946D3E90023FFF785F9804699
:102CE00089463611DDD01F2E24DD4FF0000BCDF8C4
:102CF00010B0CDF820B0CDF818B022234FF0000866
:102D00004FF00009CAF800308CE700BF4E450A08B2
:102D100068450A0845450A0848450A08AA460A08B7
:102D2000E8460A08C0460A080000F07F0000A07CC0
:102D3000FFFFEF7F16F0100318BF6A23404605938C
:102D400049460023B24FF20704D5D7E90023FFF725
:102D500021F80123761007F10807F4D10BB1804662
:102D60008946059BBBB1C9F30A53C3F16B03002B22
:102D7000494610DD1F2B40F32B81342BD8BF4FF079
:102D8000FF324FF00008CFBF4FF05C79203B02FAD2
:102D900003F303EA01090022002340464946FFF7F6
:102DA00061FA0028A1D1069B5A460093504623465B
:102DB000089900F0DCFE089000283FF424AF049B43
:102DC0004FF0000B5D1B079BCDF810B0002BB4BF7C
:102DD0002B4600230E93079B23EAE3731693089B6D
:102DE0005046596800F03AFE069000283FF413AFB1
:102DF000089B0C301A6903F10C0102329200FFF7B4
:102E000037FC1EAB01931DAB009342464B46504628
:102E1000CDE90A8901F09AF91C9000283FF4FBAE35
:102E20000121504600F02FFF0346049000283FF494
:102E3000F2AE1D9D1E9A002DABBF0E9B169BEE1889
:102E40005C1B059BA8BF169CA5EB03051544714BA5
:102E500005F1FF35B8BF0E9E9D42C2F1360280F2E9
:102E6000C9805B1B1F2B4FF00107A2EB030200F38D
:102E7000B680002507FA03F30F93B718059BBE42EF
:102E800014441C443346A8BF3B46A342A8BF234674
:102E9000002BC2BFFF1AE41AF61A0E9B002B17DD97
:102EA0001A465046049900F093FF049000283FF41E
:102EB000B2AE01461C9A504600F0EEFE0990002882
:102EC0003FF4A9AE50461C9900F0FCFD099B1C93F1
:102ED000002F00F39380079B002B08DD5046169AC5
:102EE000069900F075FF069000283FF494AE002C80
:102EF00008DD22465046069900F0B8FF06900028EB
:102F00003FF489AE002E08DD32465046049900F0A9
:102F1000ADFF049000283FF47EAE5046069A1C99FF
:102F200001F01EF8834600283FF475AE0024C36804
:102F30000499C4600D9300F0F8FFA04270DA0D9B75
:102F400053EA080340F09680C9F31303002B40F0C6
:102F5000918029F000431B0D1B05B3F1D66F40F2A1
:102F60008980DBF8143023B9DBF81030012B40F3F3
:102F7000818059460122504600F078FF049983462B
:102F800000F0D3FF002875DD05994B46224A002941
:102F900000F0918002EA0901B1F1D66F00F38B8055
:102FA000B1F15C7F7FF7A9AE00231C4A4046CDE912
:102FB00014324946DDE91423FEF7ECFE0B460343C9
:102FC00008BF22238046894608BFCAF800302DE694
:102FD0004FF0FF3202FA03F303EA0808DBE6C5F11B
:102FE0007F4505F57F0505F57B45E23507FA05F5D3
:102FF0000F9742E7012300250F933EE73A465046DC
:103000001C9900F033FF1C9000287FF464AF02E6A7
:1030100080450A0802FCFFFF0000F07F00005039E5
:10302000CDF8249066D10D9AC9F313035AB39C4A84
:1030300093422CD1059B404603B34B46994A4FF02F
:10304000FF311A40B2F1D46F1BD8120DC2F16B03DD
:1030500001FA03F398421AD1934B099A9A4202D18A
:1030600001303FF4D8AD4FF000088E4B099A1A405A
:1030700002F58019059B002B96D1D7E54FF0FF3361
:10308000E8E70B46E6E753EA08033FF47DAFE5B116
:10309000099B1D42EED00D9B40464946059AC3B19F
:1030A000FFF755FB02460B46DDE90A01FEF7BCFCC3
:1030B00080468946DEE71340A3F580136FEA135973
:1030C0004FF0FF386FEA0959D4E70F9B13EA080F56
:1030D000E0E7FFF73CFB02460B46DDE90A01FEF79D
:1030E000A1FC0022002380468946FFF7BBF8002898
:1030F000C0D002E65846049901F077F800224FF05C
:10310000804306460F46FFF7C1F8002875D00D9B97
:10311000002B47D00026654F644D099B23F00043E8
:103120001B0D1B050F930F9A614B9A4240F0C8800C
:10313000DDE90A23CDE91423099B4046A3F1547924
:10314000494600F089FF02460B4630463946FEF7F5
:1031500021FE42464B46FEF767FC0B465149554A55
:103160001940914280465ED90B9B02F15472934202
:1031700003D10A9B01333FF44EAD4FF0FF38DFF827
:10318000289150461C9900F09DFC5046069900F08D
:1031900099FC5046049900F095FC5946504600F0C1
:1031A00091FC1CE6B8F1000F19D1099BC3F313037E
:1031B000E3B90022304639463C4BFFF75DF8C8B909
:1031C0000022304639463C4BFEF7E4FD04460D46EE
:1031D00005F1004318941993DDE918679DE7B8F1EC
:1031E000010F03D1099B002B3FF487AD002600247B
:1031F000324F91E70D9C304DEAE72F4B00223046CD
:103200003946FEF7C7FD0D9B04460D4633B901F163
:10321000004310901193DDE910677EE702460B46EC
:10322000CDE91023F7E703F15479059B002BA8D1D2
:1032300029F000430F9A1B0D1B059A42A1D120468D
:10324000294601F067F8FEF777FD02460B46204657
:103250002946FEF7E7FB0D9AC9F3130343EA080377
:10326000134304460D4666D009A3D3E90023FFF7B4
:1032700003F800287FF4DAAC07A3D3E90023204643
:103280002946FFF717F800283FF47BAFCEE400BFD4
:103290009535A094FFFFDF3F35E5AF350000E03FF7
:1032A000FFFF0F000000F07FFFFFEF7F0000F03F07
:1032B0000000E07FFFFF9F7C0000E03F0000F0BFC8
:1032C000059B13B30F9BB3F1D46F1ED826A3D3E98C
:1032D000002320462946FEF7D9FF90B12946204613
:1032E000FEF7F2FF012838BF0120FEF7D9FC0D9B45
:1032F00004460D46D3B901F1004312901393DDE962
:1033000012670F9A07F1D6639F1ADDE90A0100F0F0
:10331000A3FE02460B4630463946FEF73BFDDDE98B
:103320000A23FEF781FB804689467EE702460B466C
:10333000CDE91223E3E70EA3D3E90023FEF79CFFB8
:10334000A1E700230C931B9B179A1360FFF765BA44
:10335000652B3FF45CAB452B3FF459AB0122FFF7E3
:103360008DBB00BFAFF300800000C0FFFFFFDF4157
:103370009535A094FFFFCF3F0A4601460248034B14
:103380000068FFF705BA00BF300000209800002059
:1033900003692DE9F043B3EB611F00F114044FEA18
:1033A000611246DD11F01F0104EB830604EB820578
:1033B0000CD1294600F11007B14235D39B1A9B006E
:1033C000EA1E964238BF0023234415E0A14654F874
:1033D0002270C1F12008CF4005F1040E7645F44675
:1033E00016D89B1A9A00043A0135AE4238BF002223
:1033F000A318A75007B10433A342A3EB040208BFEC
:1034000000234FEAA202026108BF4361BDE8F083D6
:10341000DCF800C00CFA08FC4CEA070749F8047B0A
:103420005EF8047BCF40D9E751F804CB47F804CFCE
:10343000C2E72346E0E7A0F13003092B02D8203889
:10344000C0B27047A0F16103052B01D84738F7E7F8
:10345000A0F14103052B01D82738F1E70020704780
:103460002DE9F04F8BB00693BA4B02901B688B4648
:10347000184690460393FFF750F98246039BDBF80A
:103480000020034413F8013C0793931CC2F1FF2270
:1034900002F57F02FE32D1181F4613F8010B01918D
:1034A0003028F8D0FFF7C7FF044600283AD152462B
:1034B00038460399FFF739F90546002866D117F811
:1034C0000A0007EB0A06FFF7B6FF002860D0334674
:1034D00018781F46302803F10103F9D0FFF7ABFF3E
:1034E0000123B0FA80F43546640901933A46164642
:1034F00030780132FFF79FFF0028F8D1524630465E
:103500000399FFF712F980B94DB906EB0A052A466F
:10351000164630780132FFF78EFF0028F8D1AD1B38
:10352000AD0004E000242546E0E7002DF7D1337814
:1035300003F0DF03502B39D173782B2B2AD02D2B9E
:103540002CD04FF00009711C0878FFF774FF431E60
:10355000DBB2182B2AD8A0F1100211F8010FFFF7E7
:103560006AFF431EDBB2182B1BD9B9F1000F00D044
:1035700052421544CBF80010D4B1019B002B14BF6C
:103580000027062738460BB0BDE8F08F3E4625469B
:103590000124CCE74FF00009B11CD5E74FF0010939
:1035A000FAE70A2303FB0202103AD6E73146E1E7C5
:1035B0002146F31B013B072B50DC029800F04EFA2A
:1035C0004FF0000B044600F11409CAF10103CDF8D5
:1035D0001090CDF804B00893B74242D3049F019BEA
:1035E00047F8043BA7EB0907BF102761184600F016
:1035F000FCFA7F01D8F800603F1AB74265DDBF1BB7
:103600003946204600F042FE8246A8B14FF0010A3A
:103610007B1E591159F8211003F01F020AFA02F219
:103620000A4209D0534505DD2046B91E00F02EFEA2
:10363000002847D14FF0020A39462046FFF7A8FE7E
:103640003D44D8F80830AB424DDA2146029800F0EC
:1036500039FA0023149AA327136093E701315B1012
:10366000A9E7731E079A059316F8013C934219D0F7
:10367000BBF1200F07D1049B019A43F8042B04935C
:1036800000239B46019316F8010CFFF7D4FE019B23
:1036900000F00F0000FA0BF0034301930BF1040B51
:1036A000059B0DE0059B089A1344BB42E0D31846E6
:1036B000524603990993FFF738F8099B0028D7D1A0
:1036C0001E4689E74FF0030AB6E709DAF71B2146E1
:1036D0003A46029800F0CAFB0446ED1B00F11409BB
:1036E0004FF0000AADE7D8F80400A8426EDD451B94
:1036F000AE4231DCD8F80C30022B22D0032B24D080
:10370000012B15D1AE4213D1012E0BD1D8F80430C4
:10371000069A6227136001232361C9F80030149BC5
:103720001C602FE72046711E00F0B0FD0028EDD18F
:103730002146029800F0C6F90023149A502713601E
:1037400020E7159B002BF3D1E0E7159B002BDDD183
:10375000EEE700BFAC460A086F1EBAF1000F32D187
:1037600027B13946204600F091FD824601217B11A8
:1037700059F8233007F01F0701FA07F71F424FF0EF
:1037800002072946204618BF4AF0020A761BFFF7B7
:10379000FFFDD8F80450BAF1000F48D0D8F80C302B
:1037A000022B15D0032B17D0012B09D11AF0020FD1
:1037B00006D0D9F800004AEA000A1AF0010F0ED12B
:1037C00047F0100733E04FF0010ACFE70127E2E7A7
:1037D000159BC3F101031593159B002BF0D04FF0FF
:1037E000000CD4F8109004F114034FEA890B03EB9A
:1037F0008901184653F8042BB2F1FF3F1CD0013267
:103800000260022F04F1140338D1D8F80020013AE5
:10381000B2420AD10122711153F8213006F01F067D
:1038200002FA06F61E4218BF174647F02007149BFF
:103830001C60069B1D60A5E6994243F804CCD8D8CD
:10384000A368994512DB61680298013100F006F91E
:103850008246226904F10C01023292000C30FEF71C
:1038600007FF2146029800F02DF9544623695A1C9F
:103870002261012204EB83035A61C2E722694A45AF
:103880000BDD01212046FFF783FDD8F80830013514
:10389000AB42FFF6DAAE0127C7E716F01F06FAD0F3
:1038A0009B445BF8040C00F0A0F9C6F12006B0427E
:1038B000E7DBF0E7C2F10802920070B5C2F1200622
:1038C0004368046803FA06F52C43D340046040F8CB
:1038D000043F8842F4D370BD30B50368013311F85A
:1038E000014B14B90360012030BD13F8012BA2F184
:1038F0004105192D98BF2032A242F0D00020F3E7F5
:103900002DE9F04F00250B6882465E1102EB86061A
:1039100013F01F0318BF0436371F9046B9463C46C4
:10392000AB4687B00168019346F8045C02954A787B
:103930004B1C039342B3104605910492FFF77BFDA5
:1039400000284FD1049A0599202A18D8029B9B453C
:1039500013DD4C4506D2072D04DC2A464946204695
:10396000FFF7A8FF444550D90023A4F1040944F807
:10397000043C1D464C46CDF808B00399D7E7292AE8
:1039800056D10231CAF80010BBF1000F50D04C459F
:1039900006D2072D04DC2A4649462046FFF78AFF57
:1039A000444534D92346A8F1040253F8041B9F422E
:1039B00042F8041FF9D23B1B23F003030433013404
:1039C000033EB44288BF04230022434443F8042B3F
:1039D0009F42FBD23B681BB9474527D101233B607F
:1039E000052026E00135082D0BF1010B06DD4445CD
:1039F000C3D90023012544F8043C043C226800F0AC
:103A00000F0040EA02122260B7E70825B5E7019BE4
:103A1000002BDFD04FF0FF32C3F1200322FA03F373
:103A200056F8042C1A4046F8042CD3E7043FD1E79B
:103A3000042007B0BDE8F08F82B001B901A942B1FE
:103A40004BB113780B601278101E18BF012002B022
:103A500070471046FBE76FF00100F8E770B5466A63
:103A600004460D463EB91020FCF72EFFC0E9016662
:103A700060620660C660666AF36883B1636ADB6889
:103A800053F82500B8B9012101FA05F6721D204648
:103A9000920000F01CFC60B1C0E901560EE021224A
:103AA0000421204600F013FC636AF060DB68002B01
:103AB000E4D1002070BD026843F825200023C0E94E
:103AC0000333F7E770B5466A05460C463EB9102049
:103AD000FCF7FAFEC0E9016668620660C6603CB1A8
:103AE0006B6A6268DB6853F82210216043F8224059
:103AF00070BD2DE9F04198460C4600230E6907463B
:103B000001F1140005680133A9B202FB01812D0CFB
:103B10004FEA114C02FB05C589B201EB05419E42FB
:103B20004FEA154840F8041BECDCB8F1000F1BD03D
:103B3000A368B34212DC616838460131FFF78EFF9B
:103B40000546226904F10C01023292000C30FEF7A6
:103B50008FFD21463846FFF7B5FF2C4604EB860360
:103B60000136C3F8148026612046BDE8F0812DE9B6
:103B7000F843154609221F4608330C4693FBF2F31F
:103B80000646012200219A4220DB3046FFF766FFFD
:103B9000089B092D43614FF00103036119DD04F116
:103BA0000909C8462C4418F8013B01460A22304650
:103BB000303BFFF79EFFA045F5D1A5F108044C442A
:103BC0002D1B6319BB4207DBBDE8F88352000131AE
:103BD000D9E709250A34F3E714F8013B01460A2224
:103BE0003046303BFFF785FFEBE7020C120403463B
:103BF000CAB90304102013F07F4F04BF1B02083022
:103C000013F0704F04BF1B01043013F0404F04BF8A
:103C10009B000230002B05DB13F0804F00F1010008
:103C200008BF202070470020E5E70368024613F034
:103C300007000BD0D90722D4980749BF5B089B081F
:103C4000012013605CBF02201360704799B209B96C
:103C500010201B0C13F0FF0F04BF1B0A08301907BC
:103C600004BF1B090430990704BF9B080230D90721
:103C700003D45B0800F1010003D0136070470020FB
:103C800070472020704710B50C460121FFF7E6FE73
:103C900001224461026110BD2DE9F04F15460A6909
:103CA0002B690C469A42BEBF0B462C461D4627691F
:103CB000D5F81090A368616807EB0906B342B8BF56
:103CC000013185B0FFF7CAFE00F114010B46002256
:103CD00001EB860843451DD304F1140305F11402DA
:103CE00003EB870702EB890302933B1B153B23F091
:103CF0000303043304F11505AF4238BF04230193D5
:103D0000029B0392934208D8002E5ADC066105B04C
:103D1000BDE8F08F43F8042BDCE7B2F800A0BAF15D
:103D2000000F24D089464FF0000C04F1140E5EF809
:103D3000045BD9F800B0ABB21FFA8BFB0AFB03B3EC
:103D40004FEA154BD9F8005063444FEA154C0AFB73
:103D50000BC505EB13459BB243EA054377454FEA94
:103D6000154C49F8043BE2D8019B41F803C0039B82
:103D70000432B3F80290B9F1000F20D08E464FF014
:103D8000000A0B6804F1140CBCF80050BEF802B035
:103D90009BB209FB05B5AA4443EA0A434EF8043B2B
:103DA0005CF8043BBEF800501B0C09FB035367454D
:103DB00003EB1A434FEA134AE6D8019D4B510431F5
:103DC0009EE758F8043D002BA0D1013E9CE700007F
:103DD0002DE9F843154612F0030206460F4607D0B8
:103DE000214C013A002354F82220FFF782FE0746B7
:103DF000AD1035D0746A3CB91020FCF765FDC0E900
:103E0000014470620460C460D6F82480D8F8084089
:103E10004CB940F271213046FFF735FF00230446CC
:103E2000C8F8080003604FF00009EB070AD53946CF
:103E300022463046FFF730FF804639463046FFF7CE
:103E400041FE47466D100BD0206838B92246214606
:103E50003046FFF721FF2060C0F800900446E4E7F9
:103E60003846BDE8F88300BFB0470A082DE9F0479F
:103E70000C46074691462369496803EB6218A3681C
:103E80004FEA621A08F10106B3423FDB3846FFF7FA
:103E9000E5FD0023054600F1140100F1100218466B
:103EA000534536DB20692AEAEA7A04F1140319F053
:103EB0001F0901EB8A0103EB800C2ED08A460022F9
:103EC000C9F1200E186800FA09F002434AF8042BE1
:103ED00053F8042B9C4522FA0EF2F3D8ACEB040302
:103EE000153B23F00303043304F11500604588BF3C
:103EF0000423CA500AB108F10206013E38462146A1
:103F00002E61FFF7DFFD2846BDE8F08701315B0039
:103F1000BAE742F8040F0133C2E7043953F8042B1F
:103F20009C4541F8042FF9D8E7E703460A69006980
:103F300030B5801A0DD11433143103EB820401EB38
:103F4000820154F8045D51F8042D954202D004D347
:103F5000012030BDA342F4D3FBE74FF0FF30F8E778
:103F60002DE9F84F0C460646114620469246FFF7CB
:103F7000DCFF051E08D129463046FFF76FFD0123FF
:103F8000C0E90435BDE8F88FA4BF5346A2463046C9
:103F9000DAF80410A6BF1C4600250125FFF75EFDD8
:103FA00000F11408DAF81070C5600AF110020AF185
:103FB00014054FF0000CC246266904F1140905EB04
:103FC000870E09EB860652F804BF59F8043B1FFA26
:103FD0008BF161441FFA83FC1B0CA1EB0C01C3EBBA
:103FE0001B4303EB214389B24FEA234C4E4541EA80
:103FF00003434AF8043BE6D8331B153B23F0030385
:1040000015340433A64238BF04231D4443441E46DE
:104010002C4674450ED30EF10302521B22F003020C
:10402000033DAE4538BF00221A4452F8043D8BB11F
:104030000761A7E754F8048B1FFA88F26244111451
:1040400001EB184192B242EA01424FEA214C46F894
:10405000042BDEE7013FE8E7114B0B40A3F150735F
:10406000002B02DD0020194670475B42B3F1A07FB0
:104070004FF000004FF000014FEA235204DA4FF4F2
:10408000002343FA02F17047A2F114031E2BD6BF9E
:104090004FF00042012322FA03F31846704700BF95
:1040A0000000F07F2DE9F843076900F1140909EBDE
:1040B000870757F8046CA7F104083046FFF795FD11
:1040C000C0F120030A280B601F4917DCC14528BF37
:1040D0000022C0F10B0C26FA0CF338BF57F8082C5D
:1040E00043EA010500F1150306FA03F322FA0CF284
:1040F00043EA020420462946BDE8F883C1452EBFA5
:10410000002257F8082CA7F10808B0F10B0316D0CD
:10411000C3F1200722FA07F1C84506FA03F646EA7A
:10412000010694BF002158F8041C46F07F5502FA9E
:1041300003F0F94045F4401540EA0104DAE714467B
:1041400046EA0105D6E700BF0000F03F2DE9F34144
:104150001C46DDE9086501219046FFF77FFCC4F3AA
:104160001303C4F30A5407462CBB0193B8F10003B0
:1041700026D068460093FFF758FD0099F0B1019AE8
:10418000C0F1200302FA03F30B43C2407B610192AA
:10419000019B002B14BF02210121BB613961C4B115
:1041A000A4F233440444C0F135003460286038463A
:1041B00002B0BDE8F08143F48013D6E77961E7E708
:1041C00001A8FFF732FD0121019B39617B6120309D
:1041D000E5E707EB8103A0F2324030601869FFF792
:1041E00004FDC0EB41112960E1E72DE9F74F884656
:1041F00069468146FFF756FF0F4604460D46404686
:1042000001A9FFF74FFFD9F81030D8F810208B46DE
:10421000A3EB020CDDE900329B1A03EB4C13002BDD
:10422000D5BF0A462A46C3EB033302EB0357D8BF78
:1042300002EB035B5B46024639462046FDF7D4FE9F
:1042400003B0BDE8F08F013970B54911146901312F
:1042500002F1140300EB810103EB8404051FA34268
:104260000CD3A31A113B23F003031132A24288BFDF
:10427000002318440023884205D370BD53F8046B13
:1042800045F8046FEBE740F8043BF4E700F1140253
:1042900000694B11984210B511DB0ADD11F01F01C6
:1042A00007D052F8234024FA01F000FA01F18C42C1
:1042B0000BD102EB8303934203D8002010BD0346C9
:1042C000F7E753F8041D0029F5D00120F6E738B5CB
:1042D00002FB01F52946FCF717FB044618B12A46F4
:1042E0000021FEF7D3F9204638BD00000020014927
:1042F000704700BF0000F87F0346084641B1FF2A1F
:1043000004D98A224FF0FF301A60704701200A70EA
:104310007047000038B50C46054621462846002265
:104320000023FDF7A9FF28B928462146BDE83840FB
:10433000FEF76EB9284604F10041FEF769F94042E4
:1043400061EB410138BD00BF21000A0861000A0885
:1043500089000A088D000A08000000007374617269
:1043600074007365742070686173650044656275DC
:1043700067537461727400736F75726365436F6421
:104380006500696E74657276616C006C6F636B7545
:104390007000626C61636B4672616D650065787078
:1043A0006F7375726500627261636B65740070682B
:1043B0006173655374617274006C61737450686FDB
:1043C000746F007374617274446562756700687419
:1043D0007470733A2F2F6769746875622E636F6DFE
:1043E0002F546F62792D4D696C6C732F696E7465F3
:1043F0007276616C6F6D657465722D70686F746F25
:104400006E006170700025592D256D2D2564542591
:10441000483A254D3A2553257A0061736374696DD6
:10442000650000000000000000000000410D0A08C7
:10443000470D0A08850D0A08550D0A08430D0A089C
:104440000000000000000000D9120A08C9120A0882
:10445000CB120A08000000000000000095130A08B3
:10446000FB130A08D3130A08A30A0A08C5130A088B
:1044700097130A08A7130A08F5130A08B7130A08BE
:1044800091130A080000000000000000F1140A085F
:1044900059150A0835150A08A30A0A0805150A0855
:1044A00021150A0813150A082F150A08F3140A081B
:1044B000F7140A08000000000000000041160A0876
:1044C0008B160A0863160A0843160A086B160A08B0
:1044D00073160A087B160A0883160A0800000000F3
:1044E0000000000053170A0849170A083F170A0876
:1044F000BD160A082F0B0A0833170A0827170A08DF
:104500001F170A0815170A080B170A08C7160A0802
:10451000000000000000000071170A087B170A085D
:1045200085170A088F170A0899170A08A5170A0895
:10453000B1170A08BD170A08C5170A08CF170A08D5
:10454000D9170A08006E6600696E69747900616E99
:104550000000000035000000CEFBFFFFCB03000091
:10456000010000000000000034000000CEFBFFFF4F
:10457000CB0300000100000000000000000000006C
:10458000BC89D897B2D29C3C33A7A8D523F6493929
:104590003DA7F444FD0FA5329D978CCF08BA5B254B
:1045A000436FAC64280668110020202020202020C2
:1045B00020202828282828202020202020202020D3
:1045C00020202020202020202088101010101010E3
:1045D000101010101010101010040404040404042F
:1045E00004040410101010101010414141414141C9
:1045F00001010101010101010101010101010101AB
:1046000001010101101010101010424242424242BA
:10461000020202020202020202020202020202027A
:104620000202020210101010200000000000000022
:10463000000000000000000000000000000000007A
:10464000000000000000000000000000000000006A
:10465000000000000000000000000000000000005A
:10466000000000000000000000000000000000004A
:10467000000000000000000000000000000000003A
:10468000000000000000000000000000000000002A
:10469000000000000000000000000000000000001A
:1046A0000000000000000000002E0000A9460A08DB
:1046B000AA460A08940000204300504F534958006E
:1046C0000080E03779C34143176E05B5B5B893460E
:1046D000F5F93FE9034F384D321D30F94877825ADA
:1046E0003CBF737FDD4F1575000000000000F03FF8
:1046F00000000000000024400000000000005940BD
:104700000000000000408F40000000000088C3400F
:1047100000000000006AF8400000000080842E4184
:1047200000000000D01263410000000084D79741D0
:104730000000000065CDCD41000000205FA00242D6
:10474000000000E876483742000000A2941A6D424B
:10475000000040E59C30A2420000901EC4BCD6423E
:1047600000003426F56B0C430080E03779C34143E9
:1047700000A0D8855734764300C84E676DC1AB435F
:10478000003D9160E458E143408CB5781DAF15447D
:1047900050EFE2D6E41A4B4492D54D06CFF0804458
:1047A000F64AE1C7022DB544B49DD9794378EA446D
:1047B00005000000190000007D0000004D050A08FA
:1047C00065090A08750B0A08850B0A08D90B0A083F
:1047D0005D170A0829180A0855190A080000000080
:0447E00000000000D5
:1047E400070000000101000010270000E80300009A
:1047F40001000000F40100001E0000002C01000074
:1048040001000000CE430A08060000001A440A080A
:104814003400002000000000000000000000000040
:104824000000000000000000000000000000000084
:104834000000000000000000000000000000000074
:104844000000000000000000000000000000000064
:104854000000000000000000000000000000000054
:104864000000000000000000000000000000000044
:1048740000000000FF0000004300000000000000F2
:104884000000000000000000000000000000000024
:1048940000000000000000004300000000000000D1
:1048A4000000000000000000000000000000000004
:1048B40000000000000000004300000000000000B1
:1048C40000000000000000000000000000000000E4
:1048D4000000000000000000430000000000000091
:1048E40000000000000000000000000000000000C4
:1048F4000000000000000000430000000000000071
:1049040000000000000000000000000000000000A3
:104914000000000000000000430000000000000050
:104924000000000000000000000000000000000083
:104934000000000000000000430000000000000030
:104944000000000000000000000000000000000063
:104954000000000000000000F9420A08393A0A0881
:1049640000000000A8450A08A9460A08AA460A0841
:10497400AA460A08AA460A08AA460A08AA460A082B
:10498400AA460A08AA460A08AA460A08AA460A081B
:10499400FFFFFFFFFFFFFFFFFFFFFFFFFFFF000021
:1049A4000100415343494900000000000000000099
:1049B40000000000000000000000000000000000F3
:1049C400000041534349490000000000000000007A
:1049D40000000000000000000000000000000000D3
:0449E40000000000CF
:1049E800FFFFFFFF00000102030405060708090A8C
:1049F8000B0C0D0E0F101112131415161718191A87
:084A08001B1C1D1E1F202800CD
:044A1000785634128E
:04000005080A0020C5
:00000001FF
